:020000040800F2
:10000000005000208D1A00089D170008A317000853
:10001000A9170008AF170008B51700080000000076
:10002000000000000000000000000000BB170008F6
:10003000C717000800000000D3170008DF170008EA
:10004000D51A0008D51A0008D51A0008D51A0008D4
:10005000D51A0008D51A0008D51A0008D51A0008C4
:10006000D51A0008D51A0008D51A0008D51A0008B4
:10007000D51A0008D51A0008D51A0008D51A0008A4
:10008000D51A0008D51A0008D51A0008D51A000894
:10009000D51A0008D51A0008D51A0008D51A000884
:1000A000D51A0008D51A0008D51A0008D51A000874
:1000B000ED170008D51A0008D51A0008D51A00084F
:1000C000D51A0008D51A0008D51A0008D51A000854
:1000D000D51A0008D51A0008D51A0008D51A000844
:1000E000D51A0008D51A0008D51A0008000000002B
:1000F0000000000000000000000000000000000000
:0C01000000000000000000005FF808F1A3
:10010C0010B5054C237833B9044B13B10448AFF345
:10011C0000800123237010BDA4000020000000000B
:10012C005043000808B5034B1BB103490348AFF318
:10013C00008008BD00000000A8000020504300080B
:10014C0080B483B000AF7860044A7B68012142F828
:10015C00231000BF0C37BD4680BC7047380100200F
:10016C0080B483B000AF7860094A7B6852F82330C2
:10017C00012B06D1064A7B68002142F8231001238B
:10018C0000E0002318460C37BD4680BC704700BF0A
:10019C003801002080B582B000AF00237B607EE088
:1001AC00434A7B6852F8232042497B6841F823205C
:1001BC00414A7B6852F823203D497B6841F8232053
:1001CC003E4A7B6852F823203D497B6831F8133056
:1001DC001946104601F092FF03461946364A7B68D1
:1001EC0042F82310344A7B6852F8232030497B684C
:1001FC0051F823309A424FD12D4A7B6852F8232074
:10020C002C497B6851F823309A4245D12D4A7B68A2
:10021C0052F8232027497B6851F823309A4216D094
:10022C00244A7B6852F8232026497B6841F8232016
:10023C00244A7B6852F82330002B2DD17868FFF7C5
:10024C007FFF214A7B68C82142F8231024E01D4A15
:10025C007B6852F82330002B1ED11B4A7B6852F866
:10026C002330002B18DD184A7B6852F823305A1EB5
:10027C0015497B6841F82320134A7B6852F82330D8
:10028C00002B09D1104A7B68C82142F823100F4A71
:10029C007B68012142F823107B6801337B607B680B
:1002AC00032B7FF77DAF00BF00BF0837BD4680BD75
:1002BC00140100207C0100205801002000000020C7
:1002CC0010000020480100202801002068010020B7
:1002DC0080B586B002AF78600B46FB70FB7823F0DC
:1002EC000F03FB73FB781B01BB73FB7B43F00C030D
:1002FC00DBB23B72FB7B43F00803DBB27B72BB7B54
:10030C0043F00C03DBB2BB72BB7B43F00803DBB2E4
:10031C00FB727B6818687B681B7999B207F108023D
:10032C0064230093042302F05DF800BF1037BD4630
:10033C0080BD80B586B002AF78600B46FB70FB7851
:10034C0023F00F03FB73FB781B01BB73FB7B43F0A8
:10035C000D03DBB23B72FB7B43F00903DBB27B7218
:10036C00BB7B43F00D03DBB2BB72BB7B43F00903D9
:10037C00DBB2FB727B6818687B681B7999B207F15A
:10038C00080264230093042302F02CF800BF1037FA
:10039C00BD4680BD80B584B000AF786080217868A0
:1003AC00FFF796FF0023FB6006E020217868FFF73B
:1003BC00C0FFFB680133FB60FB684F2BF5DD00BF12
:1003CC0000BF1037BD4680BD80B586B000AFF86069
:1003DC00B9607A607B68032B24D801A252F823F011
:1003EC00FD03000807040008110400081B040008A2
:1003FC00BB68DBB2803BFB750EE0BB68DBB2403BFD
:10040C00FB7509E0BB68DBB26C3BFB7504E0BB68B9
:10041C00DBB22C3BFB7500BFFB7D1946F868FFF780
:10042C0057FF00E000BF1837BD4680BD80B582B0D5
:10043C0000AF7860322001F0ABFB30217868FFF719
:10044C0047FF052001F0A4FB30217868FFF740FF3F
:10045C00012001F09DFB30217868FFF739FF0A205D
:10046C0001F096FB20217868FFF732FF0A2001F09B
:10047C008FFB28217868FFF72BFF012001F088FB08
:10048C0008217868FFF724FF012001F081FB01218E
:10049C007868FFF71DFF022001F07AFB06217868CF
:1004AC00FFF716FF012001F073FB0C217868FFF7B2
:1004BC000FFF00BF0837BD4680BD80B582B000AFCE
:1004CC007860396007E03B685A1C3A601B78194623
:1004DC007868FFF72EFF3B681B78002BF3D100BF29
:1004EC0000BF0837BD4680BD80B582B000AF7860D4
:1004FC00C24B1B68012B5FD100224FF48071C048A6
:10050C0001F013FE00224FF40071BD4801F00DFE06
:10051C00BC4B1B680D2B13D00D2B1FDC0B2B02D0EF
:10052C000C2B14D01AE001224FF48071B44801F066
:10053C00FCFD01224FF40071B14801F0F6FD0EE014
:10054C0001224FF48071AE4801F0EFFD07E001226B
:10055C004FF40071AA4801F0E8FD00E000BF002252
:10056C008021A94801F0E1FD00224021A74801F0BB
:10057C00DCFDA74B1B680D2B12D00D2B00F3348127
:10058C000B2B02D00C2B11D02EE1012280219E4886
:10059C0001F0CBFD012240219C4801F0C6FD28E171
:1005AC0001228021984801F0C0FD22E10122402166
:1005BC00964801F0BAFD1CE1904B1B68022B04D04D
:1005CC008E4B1B68032B40F011817B681B2B00F2B8
:1005DC000F8101A252F823F0FD070008FD07000867
:1005EC00FD070008FD070008FD070008FD070008CF
:1005FC00FD070008FD070008FD070008FD070008BF
:10060C00FD070008FD070008FD070008FD070008AE
:10061C00FD070008FD070008FD070008FD0700089E
:10062C00FD070008FD070008FD0700081D0700086E
:10063C0065070008AD070008550600088706000886
:10064C00EB060008B906000800F0C4F901224FF4CB
:10065C0080716B4801F069FD01224FF4007168480C
:10066C0001F063FD01228021674801F05EFD00224C
:10067C004021664801F059FDBBE000F0ABF90122C6
:10068C004FF480715E4801F050FD01224FF400716F
:10069C005B4801F04AFD002280215B4801F045FDDA
:1006AC0001224021594801F040FDA2E000F092F9EE
:1006BC0001228021544801F038FD01224021534889
:1006CC0001F033FD00224FF480714D4801F02DFDF7
:1006DC0001224FF400714A4801F027FD89E000F037
:1006EC0079F901224FF48071454801F01EFD00227A
:1006FC004FF40071424801F018FD0122802142485C
:10070C0001F013FD01224021404801F00EFD70E084
:10071C00404B1B68002B19D1012280213A4801F073
:10072C0004FD01224021394801F0FFFC01224FF465
:10073C008071334801F0F9FC01224FF4007130480C
:10074C0001F0F3FC334B01221A6052E000F042F945
:10075C00304B00221A604CE02F4B1B68002B19D138
:10076C0000224FF48071264801F0DFFC01224FF487
:10077C000071234801F0D9FC00228021224801F0AD
:10078C00D4FC01224021214801F0CFFC224B012254
:10079C001A602EE000F01EF91F4B00221A6028E0B0
:1007AC001E4B1B68002B19D101224FF48071144889
:1007BC0001F0BBFC00224FF40071114801F0B5FCB4
:1007CC0001228021104801F0B0FC002240210F488A
:1007DC0001F0ABFC114B01221A600AE000F0FAF8B0
:1007EC000E4B00221A6004E000BF02E000BF00E0E4
:1007FC0000BF00BF0837BD4680BD00BFC000002051
:10080C00000801402400002000100140000C0140B1
:10081C0028000020E4000020DC000020E000002084
:10082C0080B500AF0020FFF75FFE4C4B1B680D2B13
:10083C0019D00D2B3DDC0B2B02D00C2B26D038E025
:10084C00474B1B68002B36D1444B0D221A60454B8D
:10085C001B68642202FB03F3414A1360414B1B6883
:10086C00414A136027E03E4B1B68002B25D13B4BC4
:10087C000C221A603D4B1B68642202FB03F3384ABE
:10088C0013603A4B1B68384A136016E0344B1B68F4
:10089C00002B14D1314B0B221A60354B1B68642290
:1008AC0002FB03F32E4A1360314B1B682E4A136074
:1008BC0005E000BF04E000BF02E000BF00E000BFA5
:1008CC002C4B1B680D2B19D00D2B3DDC0B2B02D0A8
:1008DC000C2B26D038E0284B1B68002B36D1254B2F
:1008EC000D221A601F4B1B68642202FB03F3224A81
:1008FC0013601C4B1B68214A136027E01E4B1B68BE
:10090C00002B25D11B4B0C221A60184B1B68642240
:10091C0002FB03F3184A1360144B1B68174A13604D
:10092C0016E0154B1B68002B14D1124B0B221A60CE
:10093C000F4B1B68642202FB03F30F4A13600C4B32
:10094C001B680E4A136005E000BF04E000BF02E024
:10095C0000BF00E000BF00BF80BD00BF240000202E
:10096C00CC0000201C0000202401002020000020CE
:10097C001800002028000020D00000207801002062
:10098C0080B400AF0F4B1B68002B0FD10D4B6422B2
:10099C001A600D4B1B68013B0B4A13600B4B1B6819
:1009AC00013B0A4A13600A4B01221A60084B1B6870
:1009BC00012B02D1064B00221A6000BFBD4680BC41
:1009CC00704700BF30000020240100207801002077
:1009DC00D800002080B500AF00224FF480710A4887
:1009EC0001F0A3FB00224FF40071074801F09DFBBE
:1009FC0000228021054801F098FB00224021044888
:100A0C0001F093FB00BF80BD0008014000100140C5
:100A1C00000C014080B582B000AF78607B681B2B66
:100A2C0076D801A252F823F0BD0A00081D0B00086D
:100A3C001D0B00081D0B00081D0B00081D0B0008EA
:100A4C001D0B00081D0B00081D0B00081D0B0008DA
:100A5C001D0B00081D0B00081D0B00081D0B0008CA
:100A6C001D0B00081D0B00081D0B00081D0B0008BA
:100A7C001D0B00081D0B00081D0B0008DB0A0008ED
:100A8C00070B0008F10A0008A50A0008AD0A0008C7
:100A9C00D30A0008B50A00081820FFF725FD40E02E
:100AAC001920FFF721FD3CE01B20FFF71DFD38E06E
:100ABC001E4B1B68002B2DDC1C4B19221A600020CE
:100ACC00FFF712FD26E01A20FFF70EFD29E0174B69
:100ADC001B68002B20DC154B32221A601520FFF707
:100AEC0003FD19E0114B1B68002B17DC0F4B322256
:100AFC001A601720FFF7F8FC10E00C4B1B68002B5A
:100B0C000EDC0A4B32221A601620FFF7EDFC07E0D0
:100B1C0000BF06E000BF04E000BF02E000BF00E041
:100B2C0000BF00BF0837BD4680BD00BFD400002009
:100B3C0080B500AF00F0CAFF00F040F800F0F8F804
:100B4C0000F0AAF800F07AF8154802F0EDFB00F07E
:100B5C0005FA144B144A1A60124B42221A711148AE
:100B6C00FFF764FC0F48FFF715FC0E4800F07EFE03
:100B7C00012200210D4800F055FA012200210C48F9
:100B8C0000F050FA012200210A4800F04BFA0A2228
:100B9C000021094800F046FA00F098FAFCE700BF83
:100BAC00EC0100208C01002094010020A51100080C
:100BBC00A101000809120008A918000880B590B01E
:100BCC0000AF07F1180328220021184602F078FF25
:100BDC003B1D00221A605A609A60DA601A61022387
:100BEC00BB610123BB621023FB6202237B630023E6
:100BFC00BB630023FB6307F11803184601F04AFF9F
:100C0C000346002B01D000F01FF90F237B60022359
:100C1C00BB600023FB6000233B6100237B613B1D19
:100C2C000021184602F0B6F90346002B01D000F063
:100C3C000BF900BF4037BD4680BD000080B500AF4A
:100C4C00124B134A1A60114B124A5A600F4B002276
:100C5C009A600E4B0022DA600C4B4FF480421A6102
:100C6C000A4B00225A61094B00229A61074B002261
:100C7C00DA61064B00221A62044801F06FFA03464F
:100C8C00002B01D000F0E0F800BF80BD94010020E3
:100C9C0000540040A086010080B586B000AF07F17B
:100CAC00080300221A605A609A60DA603B46002200
:100CBC001A605A601D4B4FF080421A601B4B41F674
:100CCC003F725A60194B00229A60184B0922DA6065
:100CDC00164B00221A61154B00229A61134802F040
:100CEC00D3FA0346002B01D000F0AEF84FF480533A
:100CFC00BB6007F1080319460C4802F057FC034689
:100D0C00002B01D000F0A0F800233B6000237B6097
:100D1C003B461946054802F039FE0346002B01D02C
:100D2C0000F092F800BF1837BD4680BDEC010020E2
:100D3C0080B588B000AF07F1100300221A605A602A
:100D4C009A60DA60374B9B69364A43F0040393612F
:100D5C00344B9B6903F00403FB60FB68314B9B69CC
:100D6C00304A43F0080393612E4B9B6903F0080350
:100D7C00BB60BB682B4B9B692A4A43F01003936101
:100D8C00284B9B6903F010037B607B6800224FF4B7
:100D9C004871254801F0C9F900228021234801F04F
:100DAC00C4F900224021224801F0BFF94FF44873E6
:100DBC003B6101237B610023BB610223FB6107F1D3
:100DCC0010031946184801F015F84FF487633B617E
:100DDC0000237B610023BB6107F110031946144803
:100DEC0001F008F880233B6101237B610023BB6188
:100DFC000223FB6107F1100319460C4800F0FAFFBF
:100E0C0040233B6101237B610023BB610223FB6117
:100E1C0007F110031946064800F0ECFF00BF20371D
:100E2C00BD4680BD0010024000080140001001408A
:100E3C00000C014080B582B000AF786000F02EF954
:100E4C0000BF0837BD4680BD80B400AF72B600BF8E
:100E5C00FEE7000080B485B000AF786039607B6835
:100E6C0000225A617B6800229A613B4B1B68002B65
:100E7C0006D17B683A685A60374A7B68136066E033
:100E8C00354B1B685B683A689A4216D2324B1B682A
:100E9C005968314B1B683A688A1A5A602E4B1A688B
:100EAC007B685A612C4B1B687A689A617B683A683C
:100EBC005A60294A7B68136049E0274B1B68FB602A
:100ECC003B68BB6007E0FB685B68BA68D31ABB6021
:100EDC00FB685B69FB60FB685B69002B04D0FB68FB
:100EEC005B68BA689A42EED2FB685B68BA689A4251
:100EFC0012D3FB685B69002B0ED1FB685B68BA6888
:100F0C00D31ABB60FB687A685A617B68FA689A618D
:100F1C007B68BA685A601AE07B68BA685A60FB68EA
:100F2C005A68BB68D21AFB685A607B68FA685A61C7
:100F3C00FB689A697B689A61FB689B69002B03D0FC
:100F4C00FB689B697A685A61FB687A689A61143706
:100F5C00BD4680BC704700BFE800002080B483B061
:100F6C0000AF2B4B00221A602A4B00221A702A4B1E
:100F7C0000221A70294B00221A7000237B603DE07E
:100F8C0027497A681346DB009B1A9B000B4400220E
:100F9C001A6023497A681346DB009B1A9B000B44AA
:100FAC00083300221A601E497A681346DB009B1A2C
:100FBC009B000B440C3300221A7019497A681346B3
:100FCC00DB009B1A9B000B44143300221A6014495B
:100FDC007A681346DB009B1A9B000B4418330022E3
:100FEC001A6079680E487A681346DB009B1A9B00DE
:100FFC000344103319607B6801337B607B68272BBB
:10100C00BEDD00BF00BF0C37BD4680BC704700BFC3
:10101C00E8000020EC000020ED000020EE00002095
:10102C003402002080B586B000AFF860B9607A60F9
:10103C0000237B6102E07B6901337B617B69272B99
:10104C0009DC15497A691346DB009B1A9B000B449B
:10105C001B68002BEFD17B69282B18D07A691346BB
:10106C00DB009B1A9B000C4A13443B613B69FA68FA
:10107C001A603B697A689A607A693B691A613B69C4
:10108C0000221A73B9683869FFF7E4FE00E000BF6C
:10109C001837BD4680BD00BF3402002080B400AFBD
:1010AC00094B1B68002B0AD0074B1B685B68002B95
:1010BC0006D0054B1B685A68013A5A6000E000BF25
:1010CC00BD4680BC704700BFE800002080B582B0F0
:1010DC0000AF4FE02E4B1B687B602D4B1B685B6990
:1010EC002B4A13602A4B1B68002B03D0284B1B6820
:1010FC0000229A617B6800225A617B6800229A6107
:10110C007B681B7B0133DAB27B681A737B681B69C3
:10111C003B6020493A681346DB009B1A9B000B444A
:10112C000C331B78013BD8B21A493A681346DB00E2
:10113C009B1A9B000B440C3302461A7015493A68F3
:10114C001346DB009B1A9B000B441B6898473A68BC
:10115C001346DB009B1A9B000E4A98180D493A68FF
:10116C001346DB009B1A9B000B4408331B68194683
:10117C00FFF770FE064B1B68002B04D0044B1B685A
:10118C005B68002BA6D000BF0837BD4680BD00BFF2
:10119C00E80000203402002080B400AF134B1B6821
:1011AC00002B04DD114B1B68013B104A1360104BE4
:1011BC001B68002B04DD0E4B1B68013B0C4A1360B3
:1011CC000C4B1B68002B04DD0A4B1B68013B094AC6
:1011DC001360094B1B68002B04DD074B1B68013B9C
:1011EC00054A136000BFBD4680BC7047CC00002090
:1011FC00D000002030000020D400002080B500AFCB
:10120C00FFF7BEFB914B1B68032B00F2F88101A288
:10121C0052F823F031120008711200089F120008D6
:10122C0095130008894B01221A60894B1B686422B4
:10123C0002FB03F3874A1360874B1B68642202FB93
:10124C0003F3864A1360864B64221A60854B322264
:10125C001A607F4B1B68844A13607F4B1B68834A60
:10126C001360D1E10020FFF7DBFA0020FEF778FFD6
:10127C000346002B00F0C581744B02221A607C4B94
:10128C0018221A60774B4FF4FA721A60FFF7A2FB20
:10129C00BAE1774B1B68183B032B4DD801A252F8CF
:1012AC0023F000BFC1120008EB1200080313000862
:1012BC002D1300086E4B1B68182B02D06C4B182298
:1012CC001A600120FEF74CFF0346002B36D0684B0A
:1012DC0019221A60634B4FF496721A6035E0614B19
:1012EC001B68002B2CDC624B1A221A605D4B4FF4EE
:1012FC00FA721A6029E05E4B1B681A2B02D05C4B09
:10130C001A221A600120FEF72BFF0346002B19D07E
:10131C00574B1B221A60534B4FF496721A6014E011
:10132C00504B1B68002B0FDC514B18221A604D4B95
:10133C004FF4FA721A6008E000BF06E000BF04E048
:10134C0000BF02E000BF00E000BF494B1B6818461D
:10135C00FFF760FB0020FEF703FF0346002B00F0B5
:10136C0052813A4B03221A60424B1F221A60404BA7
:10137C0015221A603B4B32221A60FFF72BFB344BC1
:10138C001B683D4A13603FE13A4B1B68212B00F070
:10139C00C880212B00F32B811F2B02D0202B6DD06A
:1013AC0025E1334B1B68152B04D0314B15221A60E9
:1013BC00FFF710FB2E4B1B681846FFF72BFB012089
:1013CC00FEF7CEFE0346002B0BD02B4B1B680133D4
:1013DC00294A1360284B1B68632B02DD264B002225
:1013EC001A600220FEF7BCFE0346002B0BD0224BEA
:1013FC001B68013B204A13601F4B1B68002B02DA51
:10140C001D4B63221A600320FEF7AAFE0346002B35
:10141C0004D0194B1B680E4A1360EFE00020FEF756
:10142C009FFE0346002B00F0E480124B20221A6032
:10143C000F4B17221A60084B1B680F4A1360094B9D
:10144C0032221A60FFF7C6FAD8E000BFC0000020B5
:10145C0018000020CC0000201C000020D000002030
:10146C0030000020D400002024010020780100204E
:10147C00C40000202C000020C8000020634B1B6817
:10148C00172B04D0614B17221A60FFF7A3FA5F4B9E
:10149C001B681846FFF7BEFA0120FEF761FE0346F3
:1014AC00002B0BD05A4B1B680133594A1360584B15
:1014BC001B68632B02DD564B00221A600220FEF7DC
:1014CC004FFE0346002B0BD0514B1B68013B504A7F
:1014DC0013604F4B1B68002B02DA4D4B63221A60D2
:1014EC000320FEF73DFE0346002B04D0484B1B683F
:1014FC00484A136082E00020FEF732FE0346002BC0
:10150C0079D0454B21221A60444B1B68404A13602A
:10151C003E4B16221A60424B32221A60FFF75AFADF
:10152C006CE03A4B1B68162B04D0384B16221A6011
:10153C00FFF750FA354B1B681846FFF76BFA012082
:10154C00FEF70EFE0346002B0BD0314B1B6801330C
:10155C002F4A13602E4B1B68632B02DD2C4B002291
:10156C001A600220FEF7FCFD0346002B0BD0284B23
:10157C001B68013B264A1360254B1B68002B02DAC3
:10158C00234B63221A600320FEF7EAFD0346002B6F
:10159C0004D01F4B1B68214A13602FE00020FEF77C
:1015AC00DFFD0346002B28D01E4B01221A601E4B78
:1015BC001B681E4A1360174B1B681D4A13601D4B9A
:1015CC000B221A601C4B0D221A60174B1B686422ED
:1015DC0002FB03F3194A13600E4B1B68642202FBD7
:1015EC0003F3174A13600020FEF77EFF06E000BFEE
:1015FC000AE000BF08E000BF06E000BF04E000BF47
:10160C0002E000BF00E000BF00BF80BDC4000020AE
:10161C00C80000201C0000202C000020200000200E
:10162C00D4000020C000002018000020240100205D
:10163C00780100202400002028000020CC0000208D
:10164C00D000002080B485B000AF154B9B69144AC4
:10165C0043F001039361124B9B6903F00103BB60E0
:10166C00BB680F4BDB690E4A43F08053D3610C4BC4
:10167C00DB6903F080537B607B680A4B5B68FB6023
:10168C00FB6823F0E063FB60FB6843F00073FB60D6
:10169C00044AFB68536000BF1437BD4680BC7047DA
:1016AC00001002400000014080B58AB000AF7860A5
:1016BC0007F1140300221A605A609A60DA607B68A2
:1016CC001B681D4A934232D11C4B9B691B4A43F049
:1016DC0008039361194B9B6903F008033B613B6959
:1016EC004FF440737B611223BB6103233B6207F110
:1016FC0014031946124800F07DFB124B5B687B62A9
:10170C007B6A43F0E0637B627B6A43F002037B629B
:10171C000C4A7B6A5360094BDB69084A43F400139B
:10172C00D361064BDB6903F40013FB60FB6800BF5D
:10173C002837BD4680BD00BF005400400010024059
:10174C00000C01400000014080B584B000AF78600F
:10175C007B681B68B3F1804F13D10C4BDB690B4AD0
:10176C0043F00103D361094BDB6903F00103FB6018
:10177C00FB68002200211C2000F005FB1C2000F05F
:10178C001EFB00BF1037BD4680BD00BF00100240DD
:10179C0080B400AFFEE780B400AFFEE780B400AFCA
:1017AC00FEE780B400AFFEE780B400AFFEE780B484
:1017BC0000AF00BFBD4680BC704780B400AF00BF17
:1017CC00BD4680BC704780B400AF00BFBD4680BC36
:1017DC00704780B500AF00F0BFF900BF80BD0000BE
:1017EC0080B500AF024801F0F1FD00BF80BD00BF25
:1017FC00EC01002080B586B000AF7860144A154B20
:10180C00D31A7B617B693B61134B1B68002B02D1A4
:10181C00114B124A1A60104B1A687B6813443A69D0
:10182C009A4207D202F022F903460C221A604FF0BA
:10183C00FF3309E0084B1B68FB60074B1A687B6899
:10184C001344054A1360FB6818461837BD4680BD23
:10185C000050002000040000F0000020A80600202A
:10186C0080B400AF00BFBD4680BC704780B582B06D
:10187C0000AF7860084A7B681360074B1B681846FA
:10188C00FEF7D4FD044B1B681846FEF783FD00BF22
:10189C000837BD4680BD00BFF400002080B500AF06
:1018AC00604B1B68002200211846FEF78DFD5E4B35
:1018BC001B68032B26D801A252F823F0D918000874
:1018CC00E7180008F518000803190008554B1B68A9
:1018DC0056491846FEF7F1FD1BE0524B1B68544964
:1018EC001846FEF7EAFD14E04E4B1B6851491846AA
:1018FC00FEF7E3FD0DE04B4B1B684F491846FEF716
:10190C00DCFD06E0474B1B684C491846FEF7D5FD3D
:10191C0000BF444B1B68012200211846FEF754FD02
:10192C00414B1B68012B0ED1454B1A68454B1B686C
:10193C004549464802F0CCF83A4B1B6843491846D7
:10194C00FEF7BBFD6CE0384B1B68022B33D1404BD0
:10195C001B68183B032B27D801A252F823F000BFB9
:10196C007D1900088B19000899190008A71900089F
:10197C002C4B1B6837491846FEF79FFD50E0294B4E
:10198C001B6835491846FEF798FD49E0254B1B6846
:10199C0032491846FEF791FD42E0224B1B68304954
:1019AC001846FEF78AFD3BE01E4B1B682D49184676
:1019BC00FEF783FD34E01C4B1B68032B30D12A4B04
:1019CC001B68212B16D0212B1CDC1F2B02D0202BAB
:1019DC0008D017E0254B1B681A4625491B4802F016
:1019EC0077F816E0214B1B681A462249174802F07B
:1019FC006FF80EE01D4B1B681A461F49134802F086
:101A0C0067F806E0074B1B681C491846FEF755FDA6
:101A1C0000BF044B1B680D491846FEF74EFDFFE74F
:101A2C0000BF80BDF4000020C00000206843000807
:101A3C007C43000890430008A4430008B843000806
:101A4C002401002078010020CC430008F80000207D
:101A5C00C4000020E0430008F443000808440008D8
:101A6C001C440008304400082C000020C800002052
:101A7C0044440008584400086C44000880440008A2
:101A8C00FFF7EEFE0B480C490C4A002302E0D45839
:101A9C00C4500433C4188C42F9D3094A094C0023AE
:101AAC0001E013600432A242FBD301F0E5FFFFF723
:101ABC003FF8704700000020A4000020FC44000800
:101ACC00A4000020A8060020FEE7000080B500AFAF
:101ADC00084B1B68074A43F010031360032000F007
:101AEC0047F90F2000F008F8FFF7ACFD002318466B
:101AFC0080BD00BF0020024080B582B000AF78608E
:101B0C00124B1A68124B1B7819464FF47A73B3FBBD
:101B1C00F1F3B2FBF3F3184600F05FF90346002B28
:101B2C0001D001230EE07B680F2B0AD800227968C4
:101B3C004FF0FF3000F027F9064A7B681360002352
:101B4C0000E0012318460837BD4680BD3400002054
:101B5C003C0000203800002080B400AF054B1B78FF
:101B6C001A46054B1B681344034A136000BFBD465D
:101B7C0080BC70473C0000209406002080B400AF6D
:101B8C00024B1B681846BD4680BC7047940600206B
:101B9C0080B584B000AF7860FFF7F0FFB8607B6869
:101BAC00FB60FB68B3F1FF3F05D00A4B1B781A466C
:101BBC00FB681344FB6000BFFFF7E0FF0246BB6805
:101BCC00D31AFA689A42F7D800BF00BF1037BD4647
:101BDC0080BD00BF3C00002080B485B000AF7860B1
:101BEC007B6803F00703FB600C4BDB68BB60BA68D7
:101BFC004FF6FF031340BB60FB681A02BB6813432C
:101C0C0043F0BF6343F40033BB60044ABB68D3604A
:101C1C0000BF1437BD4680BC704700BF00ED00E02C
:101C2C0080B400AF044BDB681B0A03F007031846B3
:101C3C00BD4680BC704700BF00ED00E080B483B0AF
:101C4C0000AF0346FB7197F90730002B0BDBFB79D8
:101C5C0003F01F02064997F907305B09012000FACF
:101C6C0002F241F8232000BF0C37BD4680BC704700
:101C7C0000E100E080B483B000AF03463960FB7133
:101C8C0097F90730002B0ADB3B68DAB20C4997F95D
:101C9C0007301201D2B20B4483F800230AE03B68F0
:101CAC00DAB20849FB7903F00F03043B1201D2B2FC
:101CBC000B441A7600BF0C37BD4680BC704700BF82
:101CCC0000E100E000ED00E080B489B000AFF86006
:101CDC00B9607A60FB6803F00703FB61FB69C3F131
:101CEC000703042B28BF0423BB61FB690433062BB9
:101CFC0002D9FB69033B00E000237B614FF0FF320C
:101D0C00BB6902FA03F3DA43BB681A407B699A4059
:101D1C004FF0FF317B6901FA03F3D9437B680B4029
:101D2C00134318462437BD4680BC704780B582B03B
:101D3C0000AF78607B68013BB3F1807F01D3012356
:101D4C000FE00A4A7B68013B53600F214FF0FF30D4
:101D5C00FFF790FF054B00229A60044B07221A6094
:101D6C00002318460837BD4680BD00BF10E000E0D8
:101D7C0080B582B000AF78607868FFF72DFF00BFA8
:101D8C000837BD4680BD80B586B000AF0346B9604C
:101D9C007A60FB7300237B61FFF742FF78617A68FE
:101DAC00B9687869FFF790FF024697F90F30114632
:101DBC001846FFF75FFF00BF1837BD4680BD80B5E2
:101DCC0082B000AF0346FB7197F907301846FFF756
:101DDC0035FF00BF0837BD4680BD80B582B000AF6F
:101DEC0078607868FFF7A2FF034618460837BD46AF
:101DFC0080BD000080B48BB000AF786039600023E8
:101E0C007B6200233B6269E101227B6A02FA03F3E5
:101E1C00FB613B681B68FA691340BB61BA69FB69DB
:101E2C009A4240F058813B685B689A4A93425ED074
:101E3C00984A934275D8984A934258D0964A9342FE
:101E4C006FD8964A934252D0944A934269D8944A96
:101E5C0093424CD0924A934263D8924A934246D0D2
:101E6C00904A93425DD8122B2AD8122B59D801A232
:101E7C0052F823F0FB1E0008D51E0008E71E0008D0
:101E8C00291F00082F1F00082F1F00082F1F0008F4
:101E9C002F1F00082F1F00082F1F00082F1F0008DE
:101EAC002F1F00082F1F00082F1F00082F1F0008CE
:101EBC002F1F00082F1F0008DD1E0008F11E000850
:101ECC00794A934213D02CE03B68DB683B6229E0F3
:101EDC003B68DB6804333B6224E03B68DB68083317
:101EEC003B621FE03B68DB680C333B621AE03B68EB
:101EFC009B68002B02D104233B6213E03B689B6878
:101F0C00012B05D108233B627B68FA691A6109E051
:101F1C0008233B627B68FA695A6103E000233B6249
:101F2C0000E000BFBB69FF2B01D87B6801E07B6838
:101F3C0004337B61BB69FF2B02D87B6A9B0002E0F8
:101F4C007B6A083B9B003B617B691A680F213B69EC
:101F5C0001FA03F3DB431A40396A3B6901FA03F3D4
:101F6C001A437B691A603B685B6803F08053002B53
:101F7C0000F0B1804D4B9B694C4A43F001039361D7
:101F8C004A4B9B6903F00103BB60BB68484A7B6A00
:101F9C009B08023352F82330FB607B6A03F0030387
:101FAC009B000F2202FA03F3DB43FA681340FB6039
:101FBC007B68404A934213D07B683F4A93420DD0D2
:101FCC007B683E4A934207D07B683D4A934201D1DD
:101FDC00032306E0042304E0022302E0012300E0D3
:101FEC0000237A6A02F0030292009340FA681343CA
:101FFC00FB602F497B6A9B080233FA6841F8232067
:10200C003B685B6803F48013002B06D02D4B9A6859
:10201C002C49BB6913438B6006E02A4B9A68BB6959
:10202C00DB43284913408B603B685B6803F4001367
:10203C00002B06D0234BDA682249BB691343CB60D3
:10204C0006E0204BDA68BB69DB431E491340CB60CA
:10205C003B685B6803F40033002B06D0194B5A68BD
:10206C001849BB6913434B6006E0164B5A68BB69B1
:10207C00DB43144913404B603B685B6803F48033CB
:10208C00002B21D00F4B1A680E49BB6913430B6010
:10209C0021E000BF000032100000311000002210BF
:1020AC00000021100000121000001110001002405E
:1020BC000000014000080140000C014000100140EC
:1020CC0000140140000401400B4B1A68BB69DB4350
:1020DC00094913400B607B6A01337B623B681A68C9
:1020EC007B6A22FA03F3002B7FF48EAE00BF00BF95
:1020FC002C37BD4680BC70470004014080B485B0CD
:10210C0000AF78600B467B807B689A687B881340B5
:10211C00002B02D00123FB7301E00023FB73FB7B3C
:10212C0018461437BD4680BC704780B483B000AFEE
:10213C0078600B467B8013467B707B78002B03D03A
:10214C007A887B681A6103E07B881A047B681A61C1
:10215C0000BF0C37BD4680BC7047000080B584B012
:10216C0000AF78607B68002B01D101232BE17B68E9
:10217C0093F83D30DBB2002B06D17B68002283F84C
:10218C003C207868FFF790FA7B68242283F83D2086
:10219C007B681B681A687B681B6822F001021A6056
:1021AC007B681B681A687B681B6842F400421A60E3
:1021BC007B681B681A687B681B6822F400421A60F3
:1021CC0001F030F8F8607B685B68814A934207D86D
:1021DC00FB68804A934294BF01230023DBB206E0E4
:1021EC00FB687D4A934294BF01230023DBB2002B92
:1021FC0001D00123E7E0FB68784AA2FB03239B0C88
:10220C00BB607B681B685B6823F03F017B681B68C5
:10221C00BA680A435A607B681B681B6A23F03F014B
:10222C007B685B686A4A934202D8BB68013309E059
:10223C00BB684FF4967202FB03F3694AA2FB0323BB
:10224C009B0901337A6812680B4313627B681B6825
:10225C00DB6923F44F4222F0FF027B685B685C4928
:10226C008B4219D8FB68591E7B685B685B00B1FB1D
:10227C00F3F3591C40F6FC730B40002B0AD0FB689F
:10228C00591E7B685B685B00B1FBF3F30133C3F34E
:10229C000B0351E004234FE07B689B68002B11D1AA
:1022AC00FB68581E7B6859680B465B000B44B0FBFF
:1022BC00F3F30133C3F30B03002B0CBF01230023F7
:1022CC00DBB212E0FB68581E7B6859680B469B001A
:1022DC000B4499000B44B0FBF3F30133C3F30B0332
:1022EC00002B0CBF01230023DBB2002B01D00123F8
:1022FC0022E07B689B68002B0ED1FB68581E7B6824
:10230C0059680B465B000B44B0FBF3F30133C3F38A
:10231C000B0343F400430FE0FB68581E7B685968BD
:10232C000B469B000B4499000B44B0FBF3F30133B9
:10233C00C3F30B0343F44043796809681343CB613F
:10234C007B681B681B6823F0C0017B68DA697B68BB
:10235C001B6A1A437B681B680A431A607B681B68FC
:10236C009B6823F4034323F0FF037A6811697A68AE
:10237C00D26811437A6812680B4393607B681B68C0
:10238C00DB6823F0FF017B685A697B689B691A4301
:10239C007B681B680A43DA607B681B681A687B6879
:1023AC001B6842F001021A607B6800221A647B6889
:1023BC00202283F83D207B6800221A637B68002270
:1023CC0083F83E20002318461037BD4680BD00BF61
:1023DC00A08601007F841E00FF083D0083DE1B43A6
:1023EC00D34D621080B588B002AFF8607A601A469F
:1023FC000B467B8113463B81FFF7C0FB7861FB6882
:10240C0093F83D30DBB2202B40F0E0807B690093E9
:10241C00192301227049F86800F064F90346002B77
:10242C0001D00223D3E0FB6893F83C30012B01D19F
:10243C000223CCE0FB68012283F83C20FB681B687C
:10244C001B6803F00103012B07D0FB681B681A689B
:10245C00FB681B6842F001021A60FB681B681A6873
:10246C00FB681B6822F400621A60FB68212283F867
:10247C003D20FB68102283F83E20FB6800221A6482
:10248C00FB687A685A62FB683A895A85FB685B8DEF
:10249C009AB2FB681A85FB68504ADA6279897B69C3
:1024AC003A6AF86800F09CF80346002B01D001232F
:1024BC008DE000233B61FB681B685B693B61FB683B
:1024CC001B689B693B613B6966E07A69396AF8680D
:1024DC0000F022FA0346002B0DD0FB681B6C042B7A
:1024EC0007D1FB681B681A68FB681B6842F4007212
:1024FC001A6001236BE0FB685B6A1A78FB681B6847
:10250C001A61FB685B6A5A1CFB685A62FB685B8D3C
:10251C009BB2013B9AB2FB685A85FB681B8D013B51
:10252C009AB2FB681A85FB681B685B6903F00403AD
:10253C00042B1BD1FB681B8D002B17D0FB685B6A2F
:10254C001A78FB681B681A61FB685B6A5A1CFB688B
:10255C005A62FB685B8D9BB2013B9AB2FB685A8551
:10256C00FB681B8D013B9AB2FB681A857A69396A44
:10257C00F86800F019FA0346002B0DD0FB681B6CB1
:10258C00042B07D1FB681B681A68FB681B6842F4B4
:10259C0000721A6001231AE0FB681B8D002B94D18A
:1025AC00FB681B681A68FB681B6842F400721A60AF
:1025BC00FB68202283F83D20FB68002283F83E2034
:1025CC00FB68002283F83C20002300E0022318461D
:1025DC001837BD4680BD00BF020010000000FFFF91
:1025EC0080B588B002AFF8607A603B600B467B81A7
:1025FC00FB68DB6A7B617B69082B06D07B69012B4E
:10260C0003D07B6913F5803F08D1FB681B681A68FF
:10261C00FB681B6842F480721A600BE0FB681B6B52
:10262C00122B07D1FB681B681A68FB681B6842F405
:10263C0080721A603B6800937B6800224FF0011196
:10264C00F86800F04FF80346002B0DD0FB681B68B0
:10265C001B6803F48073B3F5807F03D1FB684FF4E0
:10266C0000721A64032335E0FB681B69B3F5804FD5
:10267C0008D17B89DBB21A46FB681B6802F0FE02AC
:10268C001A611BE07B89DB11DBB203F00603DBB2C2
:10269C0063F00F03DAB2FB681B681A613B687A6857
:1026AC000E49F86800F098F80346002B01D001237E
:1026BC0010E07B89DAB2FB681B681A613B687A68A8
:1026CC000749F86800F088F80346002B01D0012375
:1026DC0000E0002318461837BD4680BD08000100F5
:1026EC000200010080B584B000AFF860B9603B60B7
:1026FC001346FB7148E03B68B3F1FF3F44D0FFF752
:10270C003DFA0246BB69D31A3A689A4202D33B6837
:10271C00002B39D1BB681B0CDBB2012B0DD1FB6834
:10272C001B685B69DA43BB6813409BB2002B0CBF80
:10273C0001230023DBB21A460CE0FB681B689B6983
:10274C00DA43BB6813409BB2002B0CBF0123002360
:10275C00DBB21A46FB799A4216D1FB6800221A6347
:10276C00FB68202283F83D20FB68002283F83E2082
:10277C00FB681B6C43F02002FB681A64FB680022A8
:10278C0083F83C20012323E0BB681B0CDBB2012B3C
:10279C000DD1FB681B685B69DA43BB6813409BB2C5
:1027AC00002B0CBF01230023DBB21A460CE0FB68A4
:1027BC001B689B69DA43BB6813409BB2002B0CBFB0
:1027CC0001230023DBB21A46FB799A4293D00023F3
:1027DC0018461037BD4680BD80B584B000AFF86098
:1027EC00B9607A603B6071E0FB681B685B6903F45D
:1027FC008063B3F5806F23D1FB681B681A68FB6894
:10280C001B6842F400721A60FB681B686FF48062EC
:10281C005A61FB6800221A63FB68202283F83D2072
:10282C00FB68002283F83E20FB681B6C43F004021B
:10283C00FB681A64FB68002283F83C20012367E0E4
:10284C007B68B3F1FF3F41D0FFF798F902463B6834
:10285C00D31A7A689A4202D37B68002B36D1BB68B4
:10286C001B0CDBB2012B0CD1FB681B685B69DA43D8
:10287C00BB6813409BB2002B14BF01230023DBB2B7
:10288C000BE0FB681B689B69DA43BB6813409BB287
:10289C00002B14BF01230023DBB2002B16D0FB68E6
:1028AC0000221A63FB68202283F83D20FB6800227B
:1028BC0083F83E20FB681B6C43F02002FB681A6413
:1028CC00FB68002283F83C20012321E0BB681B0C31
:1028DC00DBB2012B0CD1FB681B685B69DA43BB686C
:1028EC0013409BB2002B14BF01230023DBB20BE07F
:1028FC00FB681B689B69DA43BB6813409BB2002BD7
:10290C0014BF01230023DBB2002B7FF46DAF002337
:10291C0018461037BD4680BD80B584B000AFF86056
:10292C00B9607A6034E0F86800F086F80346002B52
:10293C0001D0012334E0BB68B3F1FF3F28D0FFF78F
:10294C001DF902467B68D31ABA689A4202D3BB6857
:10295C00002B1DD1FB681B685B6903F08003802B87
:10296C0016D0FB6800221A63FB68202283F83D20F6
:10297C00FB68002283F83E20FB681B6C43F02002AE
:10298C00FB681A64FB68002283F83C20012307E0F3
:10299C00FB681B685B6903F08003802BC3D10023A9
:1029AC0018461037BD4680BD80B584B000AFF860C6
:1029BC00B9607A6034E0F86800F03EF80346002B0A
:1029CC0001D0012334E0BB68B3F1FF3F28D0FFF7FF
:1029DC00D5F802467B68D31ABA689A4202D3BB6810
:1029EC00002B1DD1FB681B685B6903F00403042BEF
:1029FC0016D0FB6800221A63FB68202283F83D2066
:102A0C00FB68002283F83E20FB681B6C43F020021D
:102A1C00FB681A64FB68002283F83C20012307E062
:102A2C00FB681B685B6903F00403042BC3D1002310
:102A3C0018461037BD4680BD80B483B000AF7860B7
:102A4C007B681B685B6903F48063B3F5806F1BD1F3
:102A5C007B681B686FF480625A617B6800221A6382
:102A6C007B68202283F83D207B68002283F83E207F
:102A7C007B681B6C43F004027B681A647B68002241
:102A8C0083F83C20012300E0002318460C37BD4698
:102A9C0080BC704780B586B000AF78607B68002B37
:102AAC0001D101236CE27B681B6803F00103002B4E
:102ABC0000F08780924B5B6803F00C03042B0CD066
:102ACC008F4B5B6803F00C03082B12D18C4B5B68AB
:102ADC0003F48033B3F5803F0BD1894B1B6803F4AF
:102AEC000033002B6CD07B685B68002B68D1012312
:102AFC0046E27B685B68B3F5803F06D1804B1B6870
:102B0C007F4A43F4803313602EE07B685B68002BB4
:102B1C000CD17B4B1B687A4A23F480331360784BBF
:102B2C001B68774A23F4802313601DE07B685B6885
:102B3C00B3F5A02F0CD1724B1B68714A43F4802360
:102B4C0013606F4B1B686E4A43F4803313600BE0C9
:102B5C006B4B1B686A4A23F480331360684B1B6809
:102B6C00674A23F4802313607B685B68002B13D0C7
:102B7C00FFF704F8386108E0FFF700F802463B69FC
:102B8C00D31A642B01D90323FAE15D4B1B6803F4C0
:102B9C000033002BF0D014E0FEF7F0FF386108E0B2
:102BAC00FEF7ECFF02463B69D31A642B01D90323D1
:102BBC00E6E1534B1B6803F40033002BF0D100E02B
:102BCC0000BF7B681B6803F00203002B63D04C4BE7
:102BDC005B6803F00C03002B0BD0494B5B6803F0D4
:102BEC000C03082B1CD1464B5B6803F48033002B81
:102BFC0016D1434B1B6803F00203002B05D07B68F6
:102C0C001B69012B01D00123BAE13D4B1B6823F05A
:102C1C00F8027B685B69DB00394913430B603AE0CF
:102C2C007B681B69002B20D0364B01221A60FEF703
:102C3C00A5FF386108E0FEF7A1FF02463B69D31AF5
:102C4C00022B01D903239BE12D4B1B6803F00203DC
:102C5C00002BF0D02A4B1B6823F0F8027B685B69D1
:102C6C00DB00274913430B6015E0264B00221A604A
:102C7C00FEF784FF386108E0FEF780FF02463B69EF
:102C8C00D31A022B01D903237AE11D4B1B6803F0E5
:102C9C000203002BF0D17B681B6803F00803002BA8
:102CAC003AD07B689B69002B19D0174B01221A6014
:102CBC00FEF764FF386108E0FEF760FF02463B69EF
:102CCC00D31A022B01D903235AE10D4B5B6A03F093
:102CDC000203002BF0D0012000F0B8FA1CE00A4BE4
:102CEC0000221A60FEF74AFF38610FE0FEF746FF3C
:102CFC0002463B69D31A022B08D9032340E100BFDB
:102D0C000010024000004242800442429E4B5B6A2B
:102D1C0003F00203002BE9D17B681B6803F004036A
:102D2C00002B00F0A6800023FB75974BDB6903F0AA
:102D3C008053002B0DD1944BDB69934A43F08053A5
:102D4C00D361914BDB6903F08053BB60BB680123FB
:102D5C00FB758E4B1B6803F48073002B18D18B4BC7
:102D6C001B688A4A43F480731360FEF707FF3861CF
:102D7C0008E0FEF703FF02463B69D31A642B01D926
:102D8C000323FDE0814B1B6803F48073002BF0D010
:102D9C007B68DB68012B06D17B4B1B6A7A4A43F0BC
:102DAC00010313622DE07B68DB68002B0CD1764BA2
:102DBC001B6A754A23F001031362734B1B6A724A38
:102DCC0023F0040313621CE07B68DB68052B0CD139
:102DDC006D4B1B6A6C4A43F0040313626A4B1B6A0B
:102DEC00694A43F0010313620BE0674B1B6A664AA6
:102DFC0023F001031362644B1B6A634A23F0040340
:102E0C0013627B68DB68002B15D0FEF7B7FE3861C8
:102E1C000AE0FEF7B3FE02463B69D31A41F2883250
:102E2C00934201D90323ABE0574B1B6A03F0020317
:102E3C00002BEED014E0FEF7A1FE38610AE0FEF79D
:102E4C009DFE02463B69D31A41F28832934201D966
:102E5C00032395E04C4B1B6A03F00203002BEED1CD
:102E6C00FB7D012B05D1484BDB69474A23F080538E
:102E7C00D3617B68DB69002B00F08180424B5B687F
:102E8C0003F00C03082B61D07B68DB69022B46D165
:102E9C003F4B00221A60FEF771FE386108E0FEF726
:102EAC006DFE02463B69D31A022B01D9032367E05E
:102EBC00354B1B6803F00073002BF0D17B681B6A49
:102ECC00B3F5803F08D1304B5B6823F400327B684C
:102EDC009B682D4913434B602B4B5B6823F4741296
:102EEC007B68196A7B685B6A0B43274913434B6009
:102EFC00274B01221A60FEF741FE386108E0FEF70D
:102F0C003DFE02463B69D31A022B01D9032337E05D
:102F1C001D4B1B6803F00073002BF0D02FE01C4BF3
:102F2C0000221A60FEF72AFE386108E0FEF726FE42
:102F3C0002463B69D31A022B01D9032320E0124B22
:102F4C001B6803F00073002BF0D118E07B68DB6981
:102F5C00012B01D1012313E00B4B5B68FB60FB6879
:102F6C0003F480327B681B6A9A4206D1FB6803F437
:102F7C0070127B685B6A9A4201D0012300E0002347
:102F8C0018461837BD4680BD001002400070004046
:102F9C006000424280B584B000AF786039607B68D5
:102FAC00002B01D10123D0E06A4B1B6803F007030F
:102FBC003A689A4210D9674B1B6823F0070265499F
:102FCC003B6813430B60634B1B6803F007033A68C1
:102FDC009A4201D00123B8E07B681B6803F002031E
:102FEC00002B20D07B681B6803F00403002B05D05A
:102FFC00594B5B68584A43F4E06353607B681B6829
:10300C0003F00803002B05D0534B5B68524A43F482
:10301C0060535360504B5B6823F0F0027B689B68F5
:10302C004D4913434B607B681B6803F00103002B75
:10303C0040D07B685B68012B07D1474B1B6803F4BE
:10304C000033002B15D101237FE07B685B68022BDA
:10305C0007D1414B1B6803F00073002B09D10123EE
:10306C0073E03D4B1B6803F00203002B01D10123DD
:10307C006BE0394B5B6823F003027B685B68364975
:10308C0013434B60FEF77AFDF8600AE0FEF776FD1D
:10309C000246FB68D31A41F28832934201D90323CA
:1030AC0053E02D4B5B6803F00C027B685B689B0064
:1030BC009A42EBD1274B1B6803F007033A689A42FC
:1030CC0010D2244B1B6823F0070222493B681343A0
:1030DC000B60204B1B6803F007033A689A4201D03F
:1030EC00012332E07B681B6803F00403002B08D03B
:1030FC00194B5B6823F4E0627B68DB681649134369
:10310C004B607B681B6803F00803002B09D0124B43
:10311C005B6823F460527B681B69DB000E49134328
:10312C004B6000F021F802460B4B5B681B0903F067
:10313C000F030A49CB5C22FA03F3094A1360094BCB
:10314C001B681846FEF7D8FC002318461037BD46FE
:10315C0080BD00BF002002400010024094440008D3
:10316C00340000203800002080B487B000AF00236A
:10317C00FB600023BB6000237B6100237B6000238A
:10318C003B611E4B5B68FB60FB6803F00C03042B7C
:10319C0002D0082B03D027E0194B3B6127E0FB68DA
:1031AC009B0C03F00F03174AD35C7B60FB6803F4A2
:1031BC008033002B10D0114B5B685B0C03F00103C8
:1031CC00114AD35CBB607B680D4A02FB03F2BB68FF
:1031DC00B2FBF3F37B6104E07B680C4A02FB03F364
:1031EC007B617B693B6102E0054B3B6100BF3B6946
:1031FC0018461C37BD4680BC704700BF001002400B
:10320C0000127A00AC440008BC44000800093D00E0
:10321C0080B400AF024B1B681846BD4680BC70479B
:10322C003400002080B500AFFFF7F2FF0246054BDB
:10323C005B681B0A03F007030349CB5C22FA03F318
:10324C00184680BD00100240A444000880B485B02C
:10325C0000AF78600A4B1B680A4AA2FB03235B0A87
:10326C007A6802FB03F3FB6000BFFB685A1EFA602E
:10327C00002BF9D100BF00BF1437BD4680BC70478E
:10328C0034000020D34D621080B582B000AF78605E
:10329C007B68002B01D1012341E07B6893F83D3022
:1032AC00DBB2002B06D17B68002283F83C207868C7
:1032BC00FEF74AFA7B68022283F83D207B681A6885
:1032CC007B6804331946104600F05CFA7B680122D7
:1032DC0083F846207B68012283F83E207B6801221C
:1032EC0083F83F207B68012283F840207B68012211
:1032FC0083F841207B68012283F842207B680122FD
:10330C0083F843207B68012283F844207B680122E8
:10331C0083F845207B68012283F83D200023184662
:10332C000837BD4680BD000080B485B000AF786022
:10333C007B6893F83D30DBB2012B01D001233AE0DE
:10334C007B68022283F83D207B681B68DA687B6807
:10335C001B6842F00102DA607B681B68184A9342D2
:10336C000ED07B681B68B3F1804F09D07B681B685B
:10337C00144A934204D07B681B68134A934211D1C0
:10338C007B681B689B6803F00703FB60FB68062BDC
:10339C0010D07B681B681A687B681B6842F00102BE
:1033AC001A6007E07B681B681A687B681B6842F030
:1033BC0001021A60002318461437BD4680BC7047C2
:1033CC00002C0140000400400008004080B584B08F
:1033DC0000AF78607B681B68DB68FB607B681B68F0
:1033EC001B69BB60BB6803F00203002B20D0FB6899
:1033FC0003F00203002B1BD07B681B686FF00202EA
:10340C001A617B6801221A777B681B689B6903F041
:10341C000303002B03D0786800F098F905E0786876
:10342C0000F08BF9786800F09AF97B6800221A7723
:10343C00BB6803F00403002B20D0FB6803F00403EB
:10344C00002B1BD07B681B686FF004021A617B6831
:10345C0002221A777B681B689B6903F44073002B6C
:10346C0003D0786800F072F905E0786800F065F92F
:10347C00786800F074F97B6800221A77BB6803F057
:10348C000803002B20D0FB6803F00803002B1BD093
:10349C007B681B686FF008021A617B6804221A773C
:1034AC007B681B68DB6903F00303002B03D078688F
:1034BC0000F04CF905E0786800F03FF9786800F00E
:1034CC004EF97B6800221A77BB6803F01003002BBF
:1034DC0020D0FB6803F01003002B1BD07B681B680B
:1034EC006FF010021A617B6808221A777B681B68E0
:1034FC00DB6903F44073002B03D0786800F026F9E5
:10350C0005E0786800F019F9786800F028F97B6814
:10351C0000221A77BB6803F00103002B0CD0FB6868
:10352C0003F00103002B07D07B681B686FF00102CE
:10353C001A617868FDF77EFCBB6803F08003002BF2
:10354C000CD0FB6803F08003002B07D07B681B6852
:10355C006FF080021A61786800F07FFABB6803F0A4
:10356C004003002B0CD0FB6803F04003002B07D06A
:10357C007B681B686FF040021A61786800F0F8F8FD
:10358C00BB6803F02003002B0CD0FB6803F0200376
:10359C00002B07D07B681B686FF020021A617868DB
:1035AC0000F052FA00BF1037BD4680BD80B584B024
:1035BC0000AF786039600023FB737B6893F83C3074
:1035CC00012B01D10223B4E07B68012283F83C205B
:1035DC007B68022283F83D207B681B689B68BB607C
:1035EC00BB6823F07703BB60BB6823F47F43BB60ED
:1035FC007B681B68BA689A603B681B68B3F5005F10
:10360C003ED0B3F5005F00F28780B3F5805F00F029
:10361C008680B3F5805F7FD8702B1AD0702B7BD847
:10362C00602B50D0602B77D8502B3CD0502B73D8BC
:10363C00402B58D0402B6FD8302B64D0302B6BD80C
:10364C00202B60D0202B67D8002B5CD0102B5AD0AD
:10365C0062E07B6818683B6899683B685A683B680D
:10366C00DB6800F074F97B681B689B68BB60BB6807
:10367C0043F07703BB607B681B68BA689A604FE0C5
:10368C007B6818683B6899683B685A683B68DB68DC
:10369C0000F05DF97B681B689A687B681B6842F4D4
:1036AC0080429A603CE07B6818683B6859683B68CC
:1036BC00DB681A4600F0D4F87B681B68502118466A
:1036CC0000F02BF92CE07B6818683B6859683B6864
:1036DC00DB681A4600F0F2F87B681B68602118461C
:1036EC0000F01BF91CE07B6818683B6859683B6864
:1036FC00DB681A4600F0B4F87B681B68402118465A
:10370C0000F00BF90CE07B681A683B681B681946E3
:10371C00104600F002F903E00123FB7300E000BF48
:10372C007B68012283F83D207B68002283F83C20D3
:10373C00FB7B18461037BD4680BD80B483B000AF0C
:10374C00786000BF0C37BD4680BC704780B483B036
:10375C0000AF786000BF0C37BD4680BC704780B4AA
:10376C0083B000AF786000BF0C37BD4680BC70479B
:10377C0080B483B000AF786000BF0C37BD4680BC0E
:10378C007047000080B485B000AF786039607B680A
:10379C001B68FB607B682F4A93420BD07B68B3F1AC
:1037AC00804F07D07B682C4A934203D07B682B4A0E
:1037BC00934208D1FB6823F07003FB603B685B68A5
:1037CC00FA681343FB607B68224A93420BD07B68F8
:1037DC00B3F1804F07D07B681F4A934203D07B68BC
:1037EC001E4A934208D1FB6823F44073FB603B688C
:1037FC00DB68FA681343FB60FB6823F080023B68CC
:10380C005B691343FB607B68FA681A603B689A68D3
:10381C007B68DA623B681A687B689A627B680D4A3F
:10382C00934203D13B681A697B681A637B68012257
:10383C005A617B681B6903F00103002B05D07B6880
:10384C001B6923F001027B681A6100BF1437BD4667
:10385C0080BC7047002C0140000400400008004070
:10386C0080B487B000AFF860B9607A60FB681B6AFF
:10387C007B61FB681B6A23F00102FB681A62FB6820
:10388C009B693B613B6923F0F0033B617B681B0147
:10389C003A6913433B617B6923F00A037B617A69C4
:1038AC00BB6813437B61FB683A699A61FB687A6970
:1038BC001A6200BF1C37BD4680BC704780B487B00D
:1038CC0000AFF860B9607A60FB681B6A7B61FB68CB
:1038DC001B6A23F01002FB681A62FB689B693B6150
:1038EC003B6923F470433B617B681B033A691343C8
:1038FC003B617B6923F0A0037B61BB681B017A6988
:10390C0013437B61FB683A699A61FB687A691A62B6
:10391C0000BF1C37BD4680BC704780B485B000AF7B
:10392C00786039607B689B68FB60FB6823F07003F0
:10393C00FB603A68FB68134343F00703FB607B684A
:10394C00FA689A6000BF1437BD4680BC704780B4DB
:10395C0087B000AFF860B9607A603B60FB689B6829
:10396C007B617B6923F47F437B613B681A027B6834
:10397C001A43BB6813437A6913437B61FB687A690A
:10398C009A6000BF1C37BD4680BC704780B485B0C0
:10399C0000AF786039607B6893F83C30012B01D123
:1039AC00022346E07B68012283F83C207B680222DC
:1039BC0083F83D207B681B685B68FB607B681B6839
:1039CC009B68BB60FB6823F07003FB603B681B6863
:1039DC00FA681343FB607B681B68FA685A607B6863
:1039EC001B68164A93420ED07B681B68B3F1804F5C
:1039FC0009D07B681B68124A934204D07B681B6811
:103A0C00104A93420CD1BB6823F08003BB603B6827
:103A1C005B68BA681343BB607B681B68BA689A60C2
:103A2C007B68012283F83D207B68002283F83C20D0
:103A3C00002318461437BD4680BC7047002C01404B
:103A4C00000400400008004080B483B000AF7860F0
:103A5C0000BF0C37BD4680BC704780B483B000AF4C
:103A6C00786000BF0C37BD4680BC7047014B1868AE
:103A7C00704700BF4000002070B500260C4D0D4C67
:103A8C00641BA410A64209D100F05CFC00260A4D70
:103A9C000A4C641BA410A64205D170BD55F8043B1A
:103AAC0098470136EEE755F8043B98470136F2E7A4
:103ABC00F4440008F4440008F4440008F8440008F6
:103ACC0003460244934200D1704703F8011BF9E707
:103ADC000EB46FF0004100B59CB01DAB0290069087
:103AEC00079104910848094953F8042B0591006883
:103AFC0002A9019300F068F80022029B1A701CB016
:103B0C005DF804EB03B07047400000200802FFFF93
:103B1C002DE9F0478E6882469E420C4690461F4621
:103B2C0038D88A8912F4906F32D02568096901332C
:103B3C00A5EB010965694B4405EB450505EBD5750E
:103B4C006D109D4238BF1D46530531D5294600F0F6
:103B5C0053FB064650B90C234FF0FF30CAF8003027
:103B6C00A38943F04003A381BDE8F0874A4621694D
:103B7C0000F0CEFAA38923F4906343F08003A38171
:103B8C0026614E4426603E466561A5EB0905A5609D
:103B9C00BE4200D93E4632464146206800F0C6FA85
:103BAC00A36822689B1B32440020A3602260DBE7E1
:103BBC002A4600F07BFB06460028E1D150462169DD
:103BCC0000F0CEFAC7E700002DE9F04F98468B893C
:103BDC0007461B060D4614469DB00ED50B6963B9FE
:103BEC00402100F009FB2860286120B90C233B60C0
:103BFC004FF0FF30D1E040236B6100230993202369
:103C0C008DF8293030234FF00109CDF80C80DFF806
:103C1C00A4818DF82A3023469A4613F8012B0AB159
:103C2C00252AF9D1BAEB040B0BD05B462246294668
:103C3C003846FFF76DFF013000F0AA80099A5A440C
:103C4C0009929AF80030002B00F0A28000234FF06C
:103C5C00FF32CDE905230AF1010A049307938DF88D
:103C6C0053301A935446052214F8011B514800F0A6
:103C7C0041FA049AD8B9D00644BF20238DF85330AA
:103C8C00110744BF2B238DF853309AF800302A2BA0
:103C9C0015D0544600204FF00A0C079A214611F813
:103CAC00013B303B092B4ED9B0B1079214E0A0EB8D
:103CBC00080309FA03F31343A2460493D2E7039BC8
:103CCC00191D1B680391002BBBBF5B4242F0020223
:103CDC0007930793B8BF049223782E2B0CD16378EB
:103CEC002A2B35D1039B02341A1D1B680392002B1F
:103CFC00B8BF4FF0FF330593DFF8C8A0032250463E
:103D0C00217800F0F7F940B14023A0EB0A0003FA48
:103D1C0000F0049B01340343049314F8011B0622A6
:103D2C0025488DF8281000F0E5F9002838D0234BF1
:103D3C001BBB039B073323F0070308330393099B37
:103D4C003344099367E70C4601200CFB0232A5E7CC
:103D5C0000234FF00A0C194601340593204610F845
:103D6C00012B303A092A03D9002BC5D00591C3E7A2
:103D7C00044601230CFB0121F0E703AB00932A4618
:103D8C0038460F4B04A9AFF30080421C0646D6D12F
:103D9C00AB895B063FF52CAF09981DB0BDE8F08FE1
:103DAC0003AB00932A463846054B04A900F07CF877
:103DBC00EBE700BFBE440008C84400080000000048
:103DCC001D3B0008C44400082DE9F04716469946EF
:103DDC008A680B6907469342B8BF1346336091F863
:103DEC0043200C46DDF820800AB101333360236890
:103DFC00990642BF336802333360256815F0060517
:103E0C0006D104F1190AE36832689B1AAB4228DC2C
:103E1C0094F84320131E226818BF012392062DD458
:103E2C004946384604F14302C047013020D023688C
:103E3C00E56803F00603042B18BF002532684FF029
:103E4C000006A36808BFAD1A226908BF25EAE5750C
:103E5C009342C4BF9B1AED181A34B5421AD10020F4
:103E6C0008E00123524649463846C047013003D189
:103E7C004FF0FF30BDE8F0870135C4E73020E11882
:103E8C0081F843005A1C94F845102244023382F8FE
:103E9C004310C5E70123224649463846C047013046
:103EAC00E6D00136D9E700002DE9FF470C46277E06
:103EBC009146782F80469A460C9904F1430207D814
:103ECC00622F0AD8002F00F0D980582F00F0A48060
:103EDC0004F1420684F842703AE0A7F16303152B13
:103EEC00F6D801A050F823F04D3F0008613F0008C0
:103EFC00DD3E0008DD3E0008DD3E0008DD3E00082A
:103F0C00613F0008DD3E0008DD3E0008DD3E000894
:103F1C00DD3E00086F400008913F0008514000084A
:103F2C00DD3E0008DD3E000891400008DD3E000843
:103F3C00913F0008DD3E0008DD3E000859400008B6
:103F4C000B6804F142061A1D1B680A6084F84230A3
:103F5C000123A4E0256808682E0600F104030AD5A5
:103F6C0005680B60002D03DA2D236D4284F8433075
:103F7C000A235E4819E015F0400F05680B6018BF66
:103F8C002DB2EFE70B682568181D0860280601D5CF
:103F9C001D6802E06906FBD51D886F2F0CBF082336
:103FAC000A235248002184F843106668002EA8BFEB
:103FBC002168A660A4BF21F0040121600DB9002E78
:103FCC004DD01646B5FBF3F103FB1157C75D06F850
:103FDC00017D2F46BB420D46F4D9082B0BD123682B
:103FEC00DF0708D5236961689942DEBF302306F8E4
:103FFC00013C06F1FF36921B22614B46214640469E
:10400C00CDF800A003AAFFF7DFFE01304CD14FF032
:10401C00FF3004B0BDE8F087344884F845700E6872
:10402C00236856F8045B1F060E6014D5D90744BFED
:10403C0043F0200323601DB9236823F02003236081
:10404C001023AFE7236843F020032360782328482C
:10405C0084F84530E3E75E0648BFADB2E6E71646A6
:10406C00BBE70B6826681D1D60690D6035061B6873
:10407C0001D5186002E07106FBD5188000231646A6
:10408C002361BAE70B681A1D0A601E6800213046CE
:10409C00626800F02FF808B1801B606063682361D0
:1040AC00002384F84330A8E732464946404623694A
:1040BC00D0470130ABD023689B0713D4E068039B37
:1040CC009842B8BF1846A4E70123324649464046F9
:1040DC00D04701309BD00135E36803995B1AAB42A2
:1040EC00F2DCEBE7002504F11906F5E7CF440008F4
:1040FC00E0440008034610B5C9B202449342184686
:10410C0001D1002003E0047801338C42F6D110BDBC
:10411C000A44914200F1FF3300D1704710B511F8F9
:10412C00014B914203F8014FF9D110BD884210B5F3
:10413C0001EB020402D98442234607D8431EA14254
:10414C0008D011F8012B03F8012FF8E701460244BF
:10415C008A4200D110BD13F8014D02F8014DF7E76A
:10416C0038B50546002943D051F8043C0C1F002BF0
:10417C00B8BFE41800F0D0F81E4A1368104633B9E3
:10418C00636014602846BDE8384000F0CBB8A34209
:10419C000AD921686218934201BF1A685B685218E9
:1041AC00226063600460EDE71A465B680BB1A342C2
:1041BC00FAD911685018A0420BD12068014450184C
:1041CC0083421160DED118685B6801441160536052
:1041DC00D8E702D90C232B60D4E7206821188B4236
:1041EC0001BF19685B680918216063605460C9E7F6
:1041FC0038BD00BF0C010020F8B5CD1C25F003051F
:10420C0008350C2D38BF0C25002D064601DBA942C4
:10421C0003D90C2333600020F8BD00F07DF8214950
:10422C000A6814469CB9204F3B6823B92146304696
:10423C0000F062F838602946304600F05DF8431C07
:10424C0023D10C233046336000F06CF8E3E723688D
:10425C005B1B17D40B2B03D923601C44256004E093
:10426C006368A2420CBF0B605360304600F05AF8F2
:10427C0004F10B00231D20F00700C21ACCD01B1A2E
:10428C00A350C9E722466468CCE7C41C24F003049D
:10429C00A042E3D0211A304600F02EF80130DDD1D7
:1042AC00CFE700BF0C01002010010020F8B5074635
:1042BC0014460E4621B91146BDE8F840FFF79CBFE5
:1042CC0022B9FFF74DFF25462846F8BD00F030F81F
:1042DC00A0420FD221463846FFF78EFF0546002834
:1042EC00F2D031462246FFF713FF31463846FFF72E
:1042FC0037FFE9E73546E7E738B50023054D0446B7
:10430C0008462B60FDF776FA431C02D12B6803B1EB
:10431C00236038BD98060020014800F011B800BF9A
:10432C00A0060020014800F00CB800BFA006002039
:10433C0051F8043C181F002BBCBF0B58C018704719
:10434C0070477047F8B500BFF8BC08BC9E46704774
:0C435C00F8B500BFF8BC08BC9E467047D6
:104368004D4F44453A20494E4954202020202020D2
:10437800000000004D4F44453A204155544F20203D
:1043880020202020000000004D4F44453A204D4198
:104398004E55414C20202020000000004D4F444540
:1043A8003A20434F4E464947202020200000000075
:1043B8004D4F44453A204552524F5220202020204C
:1043C8000000000052313A25303264202052323A3F
:1043D80025303264202020004D414E3A2052454479
:1043E8002D47524E20202020000000004D414E3A1B
:1043F800205245442D59454C202020200000000023
:104408004D414E3A2047524E2D52454420202020FF
:10441800000000004D414E3A2059454C2D5245446C
:1044280020202020000000004D414E3A202D2D2D47
:104438002020202020202020000000004346472084
:104448005245443A202530326420202020000000C4
:104458004346472047524E3A2025303264202020D8
:10446800200000004346472059454C3A2025303269
:1044780064202020200000004346473A203F3F3F69
:104488002020202020202020000000000000000024
:1044980000000000010203040607080900000000EC
:1044A8000102030402030405060708090A0B0C0DA0
:1044B8000E0F10100102232D302B2000686C4C00C9
:1044C800656667454647003031323334353637380C
:1044D800394142434445460030313233343536376A
:0C44E80038396162636465660000000002
:0444F400310100088A
:0444F8000D010008AA
:1044FC00000C0140000C0140000C0140000C01407C
:10450C000800200010000004090000000600000054
:10451C00030000000B0000000D0000001F00000055
:10452C006400000000127A0010000000010000007E
:10453C00440000200000000000000000000000000B
:10454C00000000000000000000000000000000005F
:10455C00000000000000000000000000000000004F
:10456C00000000000000000000000000000000003F
:10457C00000000000000000000000000000000002F
:10458C00000000000000000000000000000000001F
:04459C00000000001B
:0400000508001A8D48
:00000001FF
